:020000040000FA
:10000000181900205501000083010000850100003F
:1000100000000000000000000000000000000000E0
:10002000000000000000000000000000950100003A
:10003000000000000000000097010000990100008E
:100040009B0100009B0100009B0100009B01000040
:100050009B0100009B0100009B0100009B01000030
:100060009B0100009B0100009B0100009B01000020
:100070009B0100009B0100009B0100009B01000010
:100080009B0100009B0100009B0100009B01000000
:100090009B0100009B0100009B0100009B010000F0
:1000A0009B0100009B0100009B0100009B010000E0
:1000B0009B0100009B0100009B0100009B010000D0
:1000C0009B0100009B0100009B0100009B010000C0
:1000D0009B0100009B0100009B0100009B010000B0
:1000E0009B0100009B0100009B0100009B010000A0
:1000F0009B0100009B0100009B0100009B01000090
:100100009B0100009B0100009B0100009B0100007F
:100110009B010000290900009B0100009B010000D9
:100120009B0100009B0100009B0100009B0100005F
:100130009B0100009B0100009B0100009B0100004F
:100140000348854600F040F800480047DD0D0000F8
:1001500018190020154840F25901016040F21601BB
:10016000016040F28801016011488047114A45F65C
:10017000A5211160104A11600C48002101600F4850
:100180000047FEE77046EFF30881EFF309820C4B5E
:1001900098470047FEE7FEE7FEE7FEE7ABBE094BE8
:1001A00008B5984708BD7046F047000000010040C0
:1001B0004507000024000040EC0100404101000020
:1001C00061060000B1060000064C0125064E05E060
:1001D000E36807CC2B430C3C98471034B442F7D368
:1001E000FFF7B2FFA40F0000C40F00001F21014061
:1001F00001228A40800F8000034908580349435870
:10020000134343507047C046E00E00000402004014
:100210002B490A6802430A607047C04612480168C9
:1002200005200004014201D0002070470320C304D0
:100230000A461A400E489A4201D0034600E00B4B92
:1002400002B118468A030DD43F220A408008504369
:100250000A04920F07A39A5CC904090F5143B0FB2B
:10026000F1F080007047C0464002004000863D002B
:10027000001BB70001020404F8B50D460446104EF9
:10028000306D00903068042738433060102000F053
:1002900047F83069072108433061306A0F229043E4
:1002A00028433062306988432043306100F024FAEB
:1002B0000098C00602D43068B8433060F8BDC0462C
:1002C0000002004070B5830ADCB20F4B64B18505B3
:1002D000ED0EAC40050C0C262E400CA5AD595D1959
:1002E0002E69A64316432E610201520F0BD0C401A2
:1002F000E40EA240800E0C24044008480059C45863
:1003000094430C43C45070BD100200400000000034
:10031000040000000C00000010000000EC0E0000C3
:10032000B0B50146054A064B012000241D680D406A
:100330008D4202D0521CF9D32046B0BD7F0ADFFFA8
:1003400050020040B0B5CB4CA06888B1544D28682D
:1003500055494018E168A14A511800F06DFB402052
:100360006860A068401EA060E0684030E060B0BDFA
:100370004C4800210160B0BDF8B5494B1869494EA1
:1003800001243460484D4119484F386888B3924C75
:10039000204600F051FB207811286ED8810001A280
:1003A00051188F4600F022B800F041B800F05DB857
:1003B00000F05EB800F05FB800F042B800F05DB841
:1003C00000F05BB800F059B800F057B800F055B82D
:1003D00000F053B800F051B800F04FB800F04DB83D
:1003E00000F04BB800F02FB800F038B800F03AF940
:1003F00043E0A04D686840F6C07290420CD8774A3E
:10040000101800F019FB2868022809D3401E286044
:1004100068684030686006E03C600020306003E0BF
:100420003C60002030601E4B40205861F8BD1C4CE1
:1004300020684019391D00F0FFFA402060601CE080
:1004400000F0A4F819E0002139608A484160627820
:1004500040F2001102B1114601600EE085484026CD
:10046000C660617879B1491E0EE000F005F904E03C
:1004700000F054F801E000F063F8402008494861BA
:1004800000203060F8BDFF21054A816010684019E6
:100490005249144600F0D0FA66606661F8BDC04665
:1004A00020050C404C49004000010C400C0000208D
:1004B0007E492222CA60486001200861086900283C
:1004C000FCD10868400601D400207047086840222B
:1004D00002430A600020C0437047C0467348016869
:1004E00001220A43026070470B4900228A600860BB
:1004F0004A600120C860C8680028FCD1486870477D
:10050000054A21239360106051600120D060D068BB
:100510000028FCD17047C04604C0004010B52E48EA
:10052000401C00F0C3FC534C01212174FFF7C0FFB5
:1005300008B10020207410BC01BC864600F03CBC11
:1005400070B5254D681C00F0B1FC0446681D00F034
:10055000ADFC41F2000108B1884201D941F200002E
:1005600085081E4E6DB12046FFF7BEFF3070010EAC
:10057000F170010CB170000A7070361D241D6D1EE3
:10058000F0E770BC01BC864600F016BC70B5124D99
:10059000681C00F08BFC0446681D00F087FC41F2EB
:1005A000000108B1884201D941F2000086080B4DD4
:1005B00056B1284600F07AFC01462046FFF7A0FF1E
:1005C000241D2D1D761EF3E72A480121017470BCFD
:1005D00001BC864600F0F0BBD100002011010020D4
:1005E000F8B50092002303221D46202B0ED00E46A4
:1005F000EE40F60707D0009E9E4017469F400468D5
:10060000BC43344304609B1C6D1CEEE7F8BD000046
:100610000C480021016040F2202040F220212031CE
:10062000094A916008211160906111614120906236
:1006300010201062212090635020106340205063EE
:100640007047C04618000C4000050C4080B5FFF70D
:1006500045FF1648016808220A43026080BDC04673
:10066000012070470120800700680249086100F0FE
:10067000A3BBC0468000002090B40A48592116222E
:1006800088230160026003600468002CF9D00648EA
:10069000002101600548016802229143016090BC7D
:1006A00000F022B80001004010000C4000C00040E3
:1006B00000207047B0B50420FFF7AAFD1020FFF717
:1006C0002FFE072000242146FFF7D6FD054D2846C2
:1006D00021462246FFF7F6FD2846B0BC02BC8E46F6
:1006E000FFF784BD9B3C80420248016802220A4316
:1006F0000260704708000040B0B50D4C2568FFF758
:100700008DFD0C49886007222A40022A02D0900001
:10071000094A105822690F2313405A1CB0FBF2F00B
:10072000064A8218064BB2FBF3F205C1B0BDC046C3
:100730001002004000000020FC0E000020A1070075
:1007400040420F000548016840F203120A430C21A1
:100750008A43026002480349016070474CC0004070
:1007600008ED00E00000000070B5F04C606AC0B118
:10077000626AD84E33681B4D281F00681A4940181A
:10078000F830216A9A4224D9326800F05DF9306865
:100790002860206A3168401820623068616A081A4F
:1007A0001EE04020205C68B9204640304078052893
:1007B00008D10D480168226B914203D0016809B944
:1007C000216B0160607818B10648002101606170FA
:1007D00070BD626A00F038F9606A2860002020620B
:1007E000606270BD04050C4008000C4070B5CF4D30
:1007F000EA6915480368F0210B409A4204D1B548D4
:1008000000681249086070BD02680A40EA61A96B7D
:10081000EA6B9142F7D20D4E3468311F09684118D6
:10082000E031686B224600F00FF9A86B0019A8634D
:10083000686B00196863A86BE96B8842E3D2A5482E
:100840000068306070BDC04620000C4014050C40AC
:1008500030B4B64A002050704320105C4621515AF3
:1008600022280FD0022822D0032827D00F283BD0DF
:1008700021284AD001283ED1122900D312219069A3
:1008800000684DE04420105C800093695C69245846
:10089000A14209D98F490968B4FBF1F54D43611BA9
:1008A00001D1012151702146DA68105838E0906971
:1008B00040688378C4782402E31808E04220105C82
:1008C000032818D8800093699B68185803789942C8
:1008D00026D980490968B3FBF1F44C43191B01D1B7
:1008E0000121517019461BE09069006918B10C296B
:1008F00016D30C2114E08E480168022211430160D6
:1009000001691143016130BC7047092900D30921F5
:100910004420105C8000926993691858526810183E
:1009200030BC00F0ADB8C046F8B5414C2568E6686B
:1009300068070CD5042020602169E068C90703D04E
:1009400040F2D071084301E080218843E060E8076D
:100950001FD001272760F00709D0E06840F2D0716E
:100960000143E16000F00AFA324800210170B0074B
:1009700005D530480770E06810218843E0607007B3
:1009800007D5E06840F2D0710143E16029480021B9
:100990000170280701D508202060A80746D5002D42
:1009A0000BD50120C107216061490A6802430A6032
:1009B0000A6902430A6100F08FF80126E80303D5B3
:1009C00030042060FFF7D0FEA80303D57004206038
:1009D000FFF70CFF680303D5B0042060FFF7B2FCFB
:1009E000280303D5F0042060FFF7C6FCE80201D518
:1009F00030052060A80201D570052060680201D58D
:100A0000B0052060280201D5F0052060E80101D57D
:100A100030062060A80101D570062060680101D56C
:100A2000B0062060280101D5F0062060F8BDC04660
:100A300004000C40D00000200022402A03D08B5C30
:100A40008354521CF9E770472AB10B780370401C9D
:100A5000491C521EF8E77047D44B9960DA609861E0
:100A60000068C079BB490860044840F2D071016059
:100A7000C048016801220A430260704710000C4020
:100A8000F8B50C460146B34E3268D248C84DA24272
:100A900011D232683368E31AC44C6362AB688027B2
:100AA0001F43AF608A1822622A6880183268FFF7F5
:100AB000CBFF34680CE0BD4A00235362AE68802748
:100AC0003743AF6013622A6880182246FFF7BCFFE5
:100AD0006C60F8BD3400002010B5B44C0020E0611B
:100AE00020464030BB490822FFF7AEFF4020215C82
:100AF00060200840402807D0202807D060B910BCEB
:100B000001BC864600F016B8606800E0A06858B1E5
:100B100010BC02BC8E460047054801680222114302
:100B2000016001691143016110BDC0463800002019
:100B30000C050C40FEB59D4C0026666226624020E6
:100B4000215C48B2224640325278002846D4501EDA
:100B50000A286ED8810001A251188F4600F014B8FF
:100B600000F067B800F06EB800F063B800F082B82B
:100B700000F05FB800F05DB800F05BB800F07EB840
:100B800000F057B800F07FB84220205C012800D167
:100B9000A1E0002800D0A0E04420215C0F221140F9
:100BA0006B4B1033002502200290802001900C2D09
:100BB00000D192E0181F066816408E420BD166697C
:100BC000EE40F60707D11E68029FBE431E6006680E
:100BD000019FBE43066010336D1CE8E70120C2414F
:100BE0005B4F052A62D8930001A5EB189F46C046CB
:100BF00000F00AB800F05AB800F058B800F051B848
:100C000000F052B800F05AB8724A822970D0812997
:100C100000D189E0802900D088E0A0694068C079CF
:100C20004106CE0F800600D47EE020784000861971
:100C30007AE047480169022211430161016A1143C8
:100C40000162FEBD4220215C414801294DD009BB13
:100C50004421615C0F2319400D240246641E19D003
:100C6000D56810321D408D42F8D1116802230B4324
:100C700013600FE04220205C20630AE04220205CE9
:100C8000A062206903E04220205CE062E06800B1DD
:100C900080472F48C16880220A43C26000218160DA
:100CA000FEBDFFF7D5FD12E0A16A08E03869022118
:100CB00008433861386A08433862FEBDE16A7A68E1
:100CC000444BD154F96880220A43FA60B860A663A5
:100CD000E663666337E0002020701D4AD0688021FB
:100CE0000143D16000209060FEBD01212170D1E759
:100CF0004420215C0F200290014000230D263D4638
:100D0000134A761E07460AD0EF681035029807404E
:100D1000180110180C305B1C8F422F46F1D1386837
:100D20008007C60F0A4F2B4A7868865478681018D7
:100D300000214170F86880220243FA600220B86006
:100D4000A163E163616303480068B861FEBDC0460A
:100D5000FC040C4034000020064801680122914345
:100D60000160054840F20F11416002680A430260C9
:100D70007047C04690000C4000000C4010B50B4975
:100D800000204862886308644864086248634861D8
:100D9000C8630821064A8023C82904D08C589C4384
:100DA0008C501031F8E70349086010BD380000206E
:100DB00000050C4008000C4010B5054C20680549A2
:100DC000401805491031FFF737FE4020606010BD24
:100DD00020050C4000010C4080000020FEB52A4E8A
:100DE0005920162188223061316132613369002B2C
:100DF000F9D0FFF75FFC2548082101252A46FFF7B7
:100E0000EFFB234800240460224844F200012246FC
:100E1000FFF7E6FB204F3D60FFF718FC386830B164
:100E20000020FFF761FB401C01D0FFF725FC1B48A9
:100E300021462246FFF710FEFFF7EAFBFFF78CFF83
:100E4000680517490860B06A029016491022AB077E
:100E500003250620019014480A601F6897B137687F
:100E60002F40012F04D00F68FF0601D50A603060C3
:100E7000B7687F07BF0FF0D0029FB7623460019F51
:100E8000B760E9E70020FEBDF000004040410040AF
:100E90004C49004040400040784800401C0F000092
:100EA00004E100E004000C4001060A00C1780904D6
:100EB00082781202511842788918090200780818BD
:100EC000704702E008C8121F08C1002AFAD1704713
:100ED0007047002001E001C1121F002AFBD17047BA
:100EE00000000000040000000800000000000000F6
:100EF00004000000080000000C000000001BB70008
:100F000000800000000000000096000000000000CB
:100F100000863D0000000000006CDC02580F00005D
:100F2000380F000024000020000000000000000036
:100F30000000000000000000090220000101008004
:100F4000FA0904000002FFFFFF00070581024000CC
:100F50000107050102400001120110010000000814
:100F60001604020000000102030112034E004800B3
:100F700043002D00500052004F00470004030904B5
:100F800016033000390038003900360039003600C9
:100F90003900370031000000000008034E0048000F
:100FA00043000000C40F00000000002038000000D3
:100FB000C20E0000FC0F000038000020E018000006
:100FC000D20E0000006CDC0230000000006CDC027D
:100FD000010000004E484350726F20426F6F746CE6
:100FE0006F616465720000007C0F00009A0F0000C2
:0C0FF0006A0F0000800F000008000000E5
:0400000500000155A1
:00000001FF
